:100000000C9448170C9475170C9475170C9475176D
:100010000C9475170C9475170C9475170C94751730
:100020000C9475170C9475170C9475170C94751720
:100030000C9475170C9475170C9475170C94751710
:100040000C9475170C9472940C9475170C94751786
:100050000C9475170C9475170C94159D0C9483EBE8
:100060000C9475170C945B680C9475170C947517A9
:100070000C9475170C9475170C9475170C947517D0
:100080000C9475170C9475170C9475170C947517C0
:100090000C9475170C9475170C9475170C94B5AED9
:1000A0000C9475170C9475170C9475170C947517A0
:1000B0000C9475170C9475170C9475170C94751790
:1000C0000C9475170C9475170C9475170C94751780
:1000D0000C9475170C9475170C9475170C94751770
:1000E0000C947517423350335233543356335833CC
:1000F0003F335A335C335F333F33623366336D33A0
:1001000074337B3382333F338933903399333F33B6
:10011000A233AD33AF33B133B333B533B733B933C0
:10012000BB33BD33BF33C133C333C533C733C93327
:10013000CB33084AD73B3BCE016E84BCBFFDC12FF9
:100140003D6C74319ABD56833DDA3D00C77F11BEC8
:10015000D9E4BB4C3E916BAAAABE000000803F05CB
:10016000A84CCDB2D44EB93836A9020C50B99186FC
:1001700088083CA6AAAA2ABE000000803F4D383459
:10018000205820592045006563686F3A0043616E2E
:100190006E6F7420656E7465722073756264697227
:1001A0003A20004D3234004D323320257300617502
:1001B000746F25692E67004572726F723A0065721E
:1001C000726F722077726974696E6720746F20662F
:1001D000696C650043617264206572726F723A00E7
:1001E0004E6F74205344207072696E74696E67009C
:1001F0002F005344207072696E74696E67206279B3
:10020000746520002E0044656C6574696F6E20660D
:1002100061696C65642C2046696C653A200046690A
:100220006C652064656C657465643A002E006F70BF
:10023000656E206661696C65642C2046696C653A60
:10024000200057726974696E6720746F2066696C4C
:10025000653A20002E006F70656E206661696C65DE
:10026000642C2046696C653A20002E006F70656E24
:10027000206661696C65642C2046696C653A2000D3
:1002800046696C652073656C656374656400205312
:10029000697A653A200046696C65206F70656E6505
:1002A000643A20002E006F70656E206661696C658F
:1002B000642C2046696C653A2000534420636172C7
:1002C00064206F6B006F70656E526F6F7420666193
:1002D000696C656400766F6C756D652E696E697406
:1002E000206661696C656400534420696E697420FE
:1002F0006661696C006563686F3A004861726463A7
:100300006F6465642044656661756C742053657420
:1003100074696E6773204C6F616465640053746F19
:100320007265642073657474696E67732072657496
:100330007269657665640020440020490020202011
:100340004D33303120500050494420736574746936
:100350006E67733A00205A0020590020204D323039
:1003600036205800486F6D65206F6666736574208F
:10037000286D6D293A00204500205A0020580020A1
:10038000420020540020204D32303520530041647B
:1003900076616E636564207661726961626C657313
:1003A0003A20533D4D696E206665656472617465DF
:1003B00020286D6D2F73292C20543D4D696E2074BB
:1003C000726176656C20666565647261746520286B
:1003D0006D6D2F73292C20423D6D696E696D756DB1
:1003E000207365676D656E742074696D6520286D76
:1003F00073292C20583D6D6178696D756D205859B1
:10040000206A65726B20286D6D2F73292C20205A6D
:100410003D6D6178696D756D205A206A65726B203B
:10042000286D6D2F73292C2020453D6D6178696DF5
:10043000756D2045206A65726B20286D6D2F7329BC
:100440000020540020204D3230342053004163639B
:10045000656C65726174696F6E3A20533D616363C8
:10046000656C65726174696F6E2C20543D726574A1
:100470007261637420616363656C65726174696F36
:100480006E00204500205A0020590020204D3230B7
:10049000312058004D6178696D756D204163636549
:1004A0006C65726174696F6E20286D6D2F733229CF
:1004B0003A00204500205A0020590020204D3230BB
:1004C000332058004D6178696D756D2066656564EF
:1004D000726174657320286D6D2F73293A00204571
:1004E00000205A0020590020204D39322058005356
:1004F000746570732070657220756E69743A00536C
:10050000657474696E67732053746F726564005408
:100510004553540D0A000D0A00556E6B6E6F776ED1
:1005200020636F6D6D616E643A20000D0A003F001C
:100530004A6F726973202D207A2D756E6C696D6912
:1005400074656420302E31006563686F3A0045722F
:10055000726F723A005072696E7465722073746FB4
:10056000707065642064756520746F206572726FA9
:1005700072732E2046697820746865206572726FE8
:100580007220616E6420757365204D39393920748D
:100590006F20726573746172742E202854656D70BB
:1005A0006572617475726520697320726573657414
:1005B0002E20536574206974206166746572207200
:1005C000657374617274696E6729005072696E7424
:1005D00065722068616C7465642E206B696C6C2890
:1005E000292063616C6C656421006F6B0052657338
:1005F000656E643A20002200556E6B6E6F776E2038
:10060000636F6D6D616E643A202200456C656374A2
:10061000726F6E6963735F746573740020423A3061
:100620000020423A31006F6B20523A002200556E92
:100630006B6E6F776E20636F6D6D616E643A202212
:10064000007A5F6D696E3A2000795F6D696E3A20BD
:1006500000785F6D696E3A20005A3A00593A0020DE
:10066000436F756E7420583A2000453A005A3A009C
:10067000593A00583A004649524D574152455F4E4B
:10068000414D453A4D61726C696E20556C74696DCF
:10069000616B6572323B20537072696E7465722FA4
:1006A0006772626C206D617368757020666F72206E
:1006B00067656E36204649524D574152455F555247
:1006C0004C3A687474703A2F2F6769746875622E9B
:1006D000636F6D2F556C74696D616B65722050523C
:1006E0004F544F434F4C5F56455253494F4E3A314A
:1006F0002E30204D414348494E455F545950453AAC
:10070000556C74696D616B6572204558545255443F
:1007100045525F434F554E543A310A0020423A0049
:1007200020453A00543A0020573A0020453A0054F8
:100730003A002042403A0020403A00202F00204258
:100740003A00202F006F6B20543A002569206D6914
:100750006E2C2025692073656300456E64206669F0
:100760006C65206C69737400426567696E20666908
:100770006C65206C697374000A00205A3A200020CE
:10078000593A200020583A200042656400486F6DB5
:100790006520582F59206265666F7265205A0000E7
:1007A0000000000000000000000000000000000049
:1007B00000000000000000000066430000664300E7
:1007C000006145000066430000664300006145008B
:1007D00000E0400000E0400000E040FFFFFF0A00B2
:1007E000207A3A200020793A200020783A200042EE
:1007F000656400256920686F757273202569206D16
:10080000696E7574657300446F6E65207072696EF1
:1008100074696E672066696C65005072696E7465F4
:10082000722073746F707065642064756520746FD6
:10083000206572726F72732E204669782074686525
:10084000206572726F7220616E6420757365204D31
:1008500039393920746F20726573746172742E2077
:100860002854656D706572617475726520697320B6
:1008700072657365742E20536574206974206166F7
:100880007465722072657374617274696E67290091
:100890006F6B004E6F204C696E65204E756D626502
:1008A00072207769746820636865636B73756D2C5B
:1008B000204C617374204C696E653A20004E6F20A5
:1008C000436865636B73756D2077697468206C6924
:1008D0006E65206E756D6265722C204C617374209C
:1008E0004C696E653A2000636865636B73756D20B3
:1008F0006D69736D617463682C204C617374204C56
:10090000696E653A20004C696E65204E756D6265B2
:1009100072206973206E6F74204C617374204C696F
:100920006E65204E756D6265722B312C204C6173A3
:1009300074204C696E653A20004D31313000446FAF
:100940006E6520736176696E672066696C652E003E
:100950006F6B004D3239002020506C616E6E6572F5
:1009600042756666657242797465733A2000204666
:10097000726565204D656D6F72793A20004F637422
:10098000202034203230313500436F6D70696C6542
:10099000643A20004A6F726973202D207A2D756E9B
:1009A0006C696D6974656420302E3100207C2041B3
:1009B0007574686F723A20004F63742020342032BF
:1009C0003031352032323A33363A323700204C61FA
:1009D000737420557064617465643A2000312E3060
:1009E0002E30004D61726C696E200020536F66746A
:1009F0007761726520526573657400205761746376
:100A000068646F67205265736574002042726F7767
:100A10006E206F757420526573657400204578747C
:100A200065726E616C20526573657400506F7765F6
:100A3000725570007374617274002200656E717576
:100A400065696E672022002200656E717565696EAA
:100A5000672022006563686F3A0020746F6F206C16
:100A60006F6E6720657874727573696F6E2070722F
:100A70006576656E7465640020636F6C64206578CC
:100A800074727573696F6E2070726576656E7465C9
:100A9000640000002110422063308440A550C660ED
:100AA000E770088129914AA16BB18CC1ADD1CEE12B
:100AB000EFF13112100273325222B5529442F772A2
:100AC000D662399318837BB35AA3BDD39CC3FFF37B
:100AD000DEE36224433420040114E664C774A444B2
:100AE00085546AA54BB528850995EEE5CFF5ACC5CB
:100AF0008DD55336722611163006D776F666955682
:100B0000B4465BB77AA719973887DFF7FEE79DD71A
:100B1000BCC7C448E5588668A77840086118022811
:100B20002338CCC9EDD98EE9AFF9488969990AA96A
:100B30002BB9F55AD44AB77A966A711A500A333AE1
:100B4000122AFDDBDCCBBFFB9EEB799B588B3BBBBA
:100B50001AABA66C877CE44CC55C222C033C600C71
:100B6000411CAEED8FFDECCDCDDD2AAD0BBD688D0A
:100B7000499D977EB66ED55EF44E133E322E511EC1
:100B8000700E9FFFBEEFDDDFFCCF1BBF3AAF599F5A
:100B9000788F8891A981CAB1EBA10CD12DC14EF1FA
:100BA0006FE18010A100C230E32004502540467060
:100BB0006760B9839893FBA3DAB33DC31CD37FE38B
:100BC0005EF3B1029012F322D232354214527762B0
:100BD0005672EAB5CBA5A89589856EF54FE52CD55B
:100BE0000DC5E234C324A014810466744764245400
:100BF0000544DBA7FAB79987B8975FE77EF71DC76B
:100C00003CD7D326F2369106B0165766767615464F
:100C100034564CD96DC90EF92FE9C899E9898AB9BA
:100C2000ABA94458654806782768C018E10882389F
:100C3000A3287DCB5CDB3FEB1EFBF98BD89BBBABCA
:100C40009ABB754A545A376A167AF10AD01AB32AEF
:100C5000923A2EFD0FED6CDD4DCDAABD8BADE89D1A
:100C6000C98D267C076C645C454CA23C832CE01C3F
:100C7000C10C1FEF3EFF5DCF7CDF9BAFBABFD98FAA
:100C8000F89F176E367E554E745E932EB23ED10E8F
:100C9000F01E7C3C3E5E2B3D3F2F5B5D3B2C2A22B1
:100CA0005C0045313A200045303A20005A3A200095
:100CB000593A2000583A20004D53312C4D533220E0
:100CC00050696E730A0024F404D9201BC40C5C0E16
:100CD0009804C4095F0265077101F405F900FB047B
:100CE000B30048048700C10369005803550003039B
:100CF0004500BE023A008402310053022A00290254
:100D0000250004022000E4011C00C8011900AF0105
:100D10001700980114008401130071011000610193
:100D2000100051010E0043010D0036010B002B0194
:100D30000B0020010B00150109000C010900030143
:100D40000800FB000800F3000800EB000700E400C7
:100D50000600DE000600D8000600D2000600CC0027
:100D60000500C7000500C2000500BD000400B90071
:100D70000400B5000400B1000400AD000400A900A7
:100D80000400A5000300A20003009F0004009B00D4
:100D900003009800030095000200930003009000F8
:100DA00003008D0002008B00030088000200860013
:100DB000020084000300810002007F0002007D0029
:100DC00002007B000200790002007700010076003B
:100DD00002007400020072000100710002006F0046
:100DE00002006D0001006C0002006A000100690051
:100DF0000200670001006600010065000100640058
:100E000002006200010061000100600001005F005B
:100E100002005D0001005C0001005B0001005A005F
:100E20000100590001005800010057000100560060
:100E30000100550001005400010053000000530060
:100E400001005200010051000100500001004F005C
:100E500001004E0000004E0001004D0001004C005A
:100E600001004B0000004B0001004A000100490056
:100E70000100480000004800010047000100460052
:100E8000000046000100450000004500010044004C
:100E90000100430000004300010042000000420046
:100EA00001004100000041000100400001003F003E
:100EB00000003F0001003E0000003E0001003D0038
:100EC00000003D0001003C0000003C0000003C0030
:100ED00001003B0000003B0001003A0000003A0026
:100EE000010039000000390001003800000038001E
:100EF0000000380001003700000037000100360014
:100F0000000036000000360001003500000035000A
:100F100000003500010034000000340000003400FF
:100F200001003300000033000000330001003200F4
:100F300000003200000032000100310000003100EA
:100F400000003100010030000000300000003000DF
:100F500001002F0000002F0000002F0000002F00D4
:100F600001002E0000002E0000002E0001002D00C8
:100F700000002D0000002D0000002D0001002C00BD
:100F800000002C0000002C0000002C0001002B00B1
:100F900000002B0000002B0000002B0001002A00A5
:100FA00000002A0000002A0000002A000100290099
:100FB000000029000000290000002900000029008D
:100FC0000100280000002800000028000000280080
:100FD0000000280001002700000027000000270073
:100FE0000000270000002700010026000000260066
:100FF0000000260000002600000026000100250059
:10100000000025000000250000002500000025004C
:10101000000025000100240000002400000024003E
:101020000000240000002400010023000000230031
:101030000000230000002300000023000000230024
:101040000000230001002200000022000000220016
:101050000000220000002200000022000100210008
:1010600000002100000021000000210000002100FC
:1010700000002100000021000100200000002000ED
:1010800000002000000020000000200000002000E0
:10109000000020000000200001001F0000001F00D1
:1010A00000001F0000001F0000001F0000001F00C4
:1010B00000001F0001001E0000001E0000001E00B6
:1010C00000001E00000024F4D43050C38E20C2A2C1
:1010D0004017828B7011127A910D816CD90AA86128
:1010E000E108C7586607615143061E4B5D05C145BF
:1010F000A7041A411104093D9803713931034036A0
:10110000DB0265339102D4305402802E1D02632C21
:10111000EE01752AC501B028A001102781018F2595
:1011200064012B244B01E0223401AC211F018D20EE
:101130000D01801FFC00841EED00971DDF00B81C10
:10114000D200E61BC600201BBC00641AB200B21914
:10115000A8000A19A0006A189900D1179100401739
:101160008B00B516840031167E00B31579003A1550
:101170007300C7146F0058146A00EE1366008813DA
:10118000630025135E00C7125B006C125700151236
:101190005400C111510070114F0021114B00D610A5
:1011A00049008D1047004610440002104200C00F55
:1011B0004000800F3E00420F3C00060F3B00CB0E6C
:1011C0003800930E37005C0E3500270E3400F30D07
:1011D0003200C10D3100900D3000600D2E00320D37
:1011E0002D00050D2C00D90C2B00AE0C2900850C10
:1011F00029005C0C2700350C27000E0C2600E80B9C
:101200002400C40B2400A00B23007D0B23005A0BE9
:101210002100390B2100180B2000F80A1F00D90A01
:101220001E00BB0A1E009D0A1D00800A1D00630AE5
:101230001C00470A1B002C0A1B00110A1A00F709A0
:101240001A00DD091900C4091900AB091900920937
:1012500017007B091800630917004C0916003609AE
:101260001600200916000A091500F5081500E00807
:101270001400CC081400B8081400A4081400900846
:1012800013007D0812006B0813005808120046086E
:10129000120034081100230811001208110001087F
:1012A0001100F0071000E0071000D0071000C00781
:1012B0001000B0070F00A107100091070E00830770
:1012C0000F0074070F0065070E0057070E0049074F
:1012D0000E003B070D002E070E0020070D00130720
:1012E0000D0006070D00F9060C00ED060D00E006E6
:1012F0000C00D4060C00C8060C00BC060C00B0069E
:101300000C00A4060B0099060C008D060B0082064B
:101310000B0077060B006C060B0061060A005706EF
:101320000B004C060A0042060A0038060A002E0688
:101330000A0024060A001A060A0010060900070619
:101340000A00FD050900F4050900EB050900E205A6
:101350000900D9050900D0050900C7050900BE0527
:101360000900B5050800AD050800A50509009C05A4
:101370000800940508008C050800840508007C0519
:101380000800740508006C050700650508005D0588
:101390000700560508004E050700470507004005F1
:1013A000080038050700310507002A050700230556
:1013B00007001C050600160507000F0507000805B5
:1013C000060002050700FB040600F5040700EE0412
:1013D0000600E8040600E2040700DB040600D5046A
:1013E0000600CF040600C9040600C3040600BD04BD
:1013F0000600B7040600B1040500AC040600A6040C
:101400000600A00405009B04060095040500900456
:1014100006008A04050085040500800406007A049D
:10142000050075040500700405006B0405006604E2
:101430000500610405005C04050057040500520422
:1014400005004D04050048040500430405003E0462
:1014500004003A04050035040500300404002C049F
:10146000050027040400230405001E0404001A04D8
:10147000040016040500110404000D04040009040E
:1014800005000404040000040400FC030400F80345
:101490000400F4030400F0030400EC030400E80378
:1014A0000400E4030400E0030400DC030400D803A8
:1014B0000400D4030400D0030400CC030400C803D8
:1014C0000300C50303006563686F3A00205A3A00C1
:1014D00020593A0020583A00656E6473746F707337
:1014E000206869743A20004572726F723A00546540
:1014F0006D7065726174757265206865617465648C
:1015000020626564207377697463686564206F6620
:10151000662E204D415854454D50207472696767BE
:1015200065726564202121003A20457874727564E3
:101530006572207377697463686564206F66662ED0
:10154000204D494E54454D5020747269676765724D
:1015500065642021003A20457874727564657220B4
:101560007377697463686564206F66662E204D41E9
:101570005854454D502074726967676572656420E0
:101580002100202D20496E76616C69642065787495
:101590007275646572206E756D626572202100003F
:1015A000000000300E0100C00E0A00500F1400D0E1
:1015B0000F1E0060102800E010320070113C00F097
:1015C0001146007012500000135A0080136400008E
:1015D000146E00901478001015820090158C001085
:1015E0001696009016A0001017AA009017B40010CD
:1015F00018BE009018C8001019D2009019DC001015
:101600001AE600801AF000001BFA00801B0401F0AB
:101610001B0E01701C1801F01C2201601D2C01E042
:101620001D3601501E4001D01E4A01401F5401B01A
:101630001F5E0130206801A020720110217C019002
:10164000218601002290016026F401902A58028030
:101650002EBC0250322003E03584035039E8038069
:101660003C4C04504944204175746F74756E65207C
:1016700066696E69736865642120507574207468AA
:1016800065204B702C204B6920616E64204B6420D8
:10169000636F6E7374616E747320696E746F204330
:1016A0006F6E66696775726174696F6E2E6800503F
:1016B0004944204175746F74756E65206661696C6C
:1016C0006564212074696D656F75740020403A006F
:1016D0006F6B20543A006F6B20423A00504944200F
:1016E0004175746F74756E65206661696C656421FF
:1016F0002054656D706572617475726520746F6FCA
:10170000206869676800204B643A2000204B693AE2
:101710002000204B703A200020436C6173696320E5
:1017200050494420002054753A2000204B753A203F
:1017300000206D61783A2000206D696E3A2000200B
:10174000643A200020626961733A20004D41494E9D
:1017500054454E414E4345004D4154455249414C3C
:10176000005052494E54005072696E74696E672081
:1017700077697468205553422E2E2E007375707051
:101780006F727440756C74696D616B65722E636FF6
:101790006D00436F6E746163743A005361666574E3
:1017A0007920636972637569740054656D70207384
:1017B000656E736F72204245440054656D702073EE
:1017C000656E736F72004552524F52202D20535454
:1017D0004F5050454400801506060606FEFEFEFEEC
:1017E000FC00000000000000FCFEFEFEFC0000000B
:1017F0000EFEFEFEFE0000E0FCFEFEFCE0E000004F
:1018000000CECECE000000C0C0C0C0C0C08000006E
:101810000000000080C0C080000000000000808048
:10182000C0C0C0C0C0C0C080800000000006FEFE76
:10183000FEFE0000000080C0C0C0000000000000EC
:101840008080C0C0C080808000000000C0C0C0C0D8
:101850000080C0C0C0C08000000000007FFFFFFF0C
:10186000FF80000000000080FFFFFFFFFF0000007E
:1018700000FFFFFFFF000000FFFFFFFF0000000070
:1018800000FFFFFF00000081F1FFFF3F0F3FFFFC63
:10189000F0F0FCFF3F0F3FFFFEF880000000C1E1C9
:1018A000F1F17131010183FFFFFFFC000000FFFF38
:1018B000FFFF000C3EFFFFF7C301000000FCFEFF2E
:1018C0008703113131333F3F3F1E000001FFFFFF0F
:1018D000FF070301010101000000000000010307F0
:1018E000070F0F0F0F0F0F0F0707070F0F0600004F
:1018F00000070F0F07000000070F0F070000000090
:10190000000F0F0F0000060F0F0701000000010776
:101910000F0F070100000001070F0F06000003076B
:101920000F0F0E0E060703070F0F07000000070F2B
:101930000F0700000000030F0F0F06000000030751
:10194000070F0E0E0E0E0E0E06000000000F0F0FFA
:101950000F000000000000008015090909F90101CD
:10196000010103FE0000000000FE0301010103FE6F
:10197000001FF101010101FFF01E030101031E1010
:10198000F000FF313131FF00E020202020202060D6
:10199000C080000080C060202060C000000000C047
:1019A0004060202020202020206040C080000FF9CF
:1019B00001010101FF0080C060202020E000000044
:1019C00080C04060202020604040C08000E0202097
:1019D0002020E0602020202060C0000000FF800068
:1019E0000000007FC0808080C07F0000000000FFFA
:1019F0000000FF00000000FF01FF00000000FF01E9
:101A00000100FF000000FF00C37A0E0000C070C09C
:101A100000030E0E0300C070C00001077CC000E38D
:101A2000321A0A0A8ACAFAC67C00000003FE00FFC6
:101A300000000000FF73C10000083CE68300FE03C5
:101A4000010078FCEE4A4E4C404040613F03FE00EE
:101A5000000000F80C06020202030000000003066A
:101A60000C08181010101010101018081810101969
:101A70000F000F181010180F000F181010180F007B
:101A800000001F1010101F0F191010180E03000374
:101A90000E181010180E0300030E181010190F075F
:101AA0000C181010111119080C181010180F000F35
:101AB000181010180F0001071C101010190F010743
:101AC0000C081810111111111111190F00001F101D
:101AD0001010101F0000000000002F400000000048
:101AE0000000000000000000808080C0E0FEFF19C0
:101AF0001E9898981818181818189E9F991E38F054
:101B0000E0000000000000000000000000000000F5
:101B1000000000003CFEFFFF99F1E1C3FFFF000061
:101B20006363636060606060606363630000FFFF25
:101B30007C38000000000000000000000080C06051
:101B4000B0D8D81CFCFF3F0F8FCFC7C7C7C6C6C6CB
:101B5000C6C6C6C6C6C6C6C6C6C6C6C6C6C7C7C425
:101B6000CC0C1CF8F870C00000000EFFF92A2B2BDB
:101B70002828FCFFFF0000FFFFFFFFFFFFFFBFB7AC
:101B800017B5BDB500B5B5F717FFBFBFFFFFFFFF26
:101B90000000FFFFFCFF0700C0F0FFFFFDDD1D1987
:101BA000193FFFFF0000FFFFFFFFFFFFFFFBF1FBFF
:101BB000FBEAEEC0EEEAFAF0FAFAFFFFFFFFFF00E1
:101BC00000FFFF0F1FF8E00003070F0F1B1819FBA2
:101BD000FEFFFFF0E0C0C1E1F1F1F1F1F1F1F1F14F
:101BE000F1F1F1F9F9F9F9F9F9797979F1F01018D8
:101BF0001F070603030000000000000000F8FFEFCD
:101C0000DFBF7FFFFFFF404143437F212020217F33
:101C1000FFFFFF3FB091D1DFD050581F1FF0F00001
:101C2000000000000000000000000003070F1E3D40
:101C30007B77EED1DEDECF4B4B6969686868603F29
:101C40003F373737353430101018181A1B0F06007D
:101C500000000000100FFC0E0FCFCFCFCECCCCCCAD
:101C6000CCCCCCDCC0C007707E7F7F7F7F7F7F7F46
:101C70007F7F7F7F0F017120FFFFFFFFFFFFFFFFCF
:101C8000FFFFFCE000000000000000000000E0FC9E
:101C9000FFFFFFFFFFFFFFFFFFFF0000000000004E
:101CA0000000000000000000000000000000000034
:101CB00000000000FFFFFFFFFFFFFF00000000002B
:101CC0000000000000000000000000000000000014
:101CD0000000000000000000000000000000000004
:101CE000000000000000000000FFFFFFFFFFFFFFFB
:101CF0007FFFFFFFFFFFF8800000000080F0FFFF84
:101D0000FFFFFF3FFFFFFFFFFFFFFF00000030F876
:101D1000F8FCFC7E7E7E3E3E3E3E7E7EFEFEFCFC71
:101D2000F8E0800000FFFFFFFFFFFFFF000080C022
:101D3000E0F0F8FCFEFE7E3E1E0E06C0E0F0F8FC71
:101D4000FCFE7E3E3E3E3E3E7EFEFCFCF8F0C08049
:101D50000000FEFEFEFEFEFEFEFEFFFFFFFFFFFF99
:101D6000FF00031FFFFFFFFFFFFCE0E0FCFFFFFFA2
:101D7000FFFF1F0100FFFFFFFFFFFFFF0000C0E0AC
:101D8000F0F0F8F8FC7C7C3C3C3E1E1E1EFFFFFF82
:101D9000FFFFFFFF0000FFFFFFFFFFFFFFFEFFFF52
:101DA000FFFFFFFFFFF1C080000000FFFFFFFFFF0C
:101DB000FFFF3C3C3C3C3C3C3C3C3C3F3F3F3F3FCE
:101DC0003F00000000000000000000FFFFFFFFFFD9
:101DD000FFFF00000000073FFFFFFFFFFFFFFFFFC7
:101DE0003F0700000000FFFFFFFFFFFFFF00003F75
:101DF0007FFFFFFFFFFCFCF8F8F87C7C3C3EFFFF18
:101E0000FFFFFFFFFF0000FFFFFFFFFFFFFF0301DA
:101E1000000003071F7FFFFFFFFEFCF0E38F1F3F63
:101E20003F7F7FFEFCF8F8F0F0F0F8F8FCFC7E7ED7
:101E30003C300000FEFEFEFEFEFEFEFE43414E4331
:101E4000454C002073656300206D696E0020686F4B
:101E500075720020686F757273000000000000004A
:101E6000005F00000007000700147F147F14242A7D
:101E70007F2A122313086462364955225000050355
:101E80000000001C2241000041221C00082A1C2ADC
:101E90000808083E08080050300000080808080834
:101EA000006060000020100804023E5149453E00D9
:101EB000427F400042615149462141454B3118144F
:101EC000127F1027454545393C4A4949300171097F
:101ED00005033649494936064949291E0036360068
:101EE0000000563600000008142241141414141483
:101EF00041221408000201510906324979413E7E0F
:101F00001111117E7F494949363E414141227F41AD
:101F100041221C7F494949417F090901013E414154
:101F200051327F0808087F00417F41002040413F37
:101F3000017F081422417F404040407F0204027F1D
:101F40007F0408107F3E4141413E7F090909063E5A
:101F50004151215E7F09192946464949493101010C
:101F60007F01013F4040403F1F2040201F7F20183D
:101F7000207F631408146303047804036151494506
:101F80004300007F4141020408102041417F0000CE
:101F900004020102044040404040000102040020CD
:101FA000545454787F484444383844444420384496
:101FB00044487F3854545418087E090102081454C8
:101FC000543C7F0804047800447D40002040443D98
:101FD00000007F10284400417F40007C04180478F2
:101FE0007C0804047838444444387C1414140808E9
:101FF0001414187C7C080404084854545420043FEA
:102000004440203C4040207C1C2040201C3C403070
:10201000403C44281028440C5050503C4464544CDC
:1020200044000836410000007F00000041360800EF
:1020300008082A1C08081C2A08086275696C647064
:102040006C6174652E006F662061646A75737469D3
:102050006E6720796F7572007468726F756768209B
:102060007468652070726F636573730049207769C7
:102070006C6C20677569646520796F7500434F4EFD
:1020800054494E5545004D323031205833303030B0
:10209000205933303030205A313030204531303003
:1020A0003030004D32303320583230302E30302036
:1020B000593230302E3030205A31302E30302045D9
:1020C00034352E3030004D3932205838302E3030F3
:1020D000205938302E3030205A313636362E3636AA
:1020E000363720453238322E3030004D32303620EF
:1020F00058302E30302059302E3030205A302E308B
:1021000030005A2D556E6C696D6974656420616488
:10211000642D6F6E2100556C74696D616B65722062
:102120003220576974680073746172747570206F1F
:102130006620796F75720057656C636F6D652074EA
:102140006F2074686520666972737400312F3300E4
:10215000434F4E54494E55450067657420612077C2
:10216000697A6172642E005A2D556E6C696D6974BE
:1021700065642C20796F75006669727374207374BE
:102180006172747570207769746800426563617567
:102190007365207468697320697320746865003200
:1021A0002F3300434F4E54494E5545004D61782022
:1021B000666565647261746573005374657073203D
:1021C000706572206D6D004F746865722061636385
:1021D000656C61726174696F6E73004E657720681B
:1021E0006F6D696E67206F666673657400332F3399
:1021F00000434F4E54494E5545004300432F004382
:102200006C69636B20746F2072657475726E004226
:1022100075696C64706C6174652074656D702E3ABC
:102220000052455455524E00414456414E43454498
:10223000004255494C442D7C504C41544500473296
:1022400038205A3000473238205830205930004169
:102250004456414E43454400746F20646566617581
:102260006C743F005265736574206576657279748D
:1022700068696E67004E4F00594553006D00204D50
:1022800061743A003A005072696E74696E673A0080
:102290003A004D616368696E65206F6E20666F72EB
:1022A0003A0052657475726E004A6F726973202D20
:1022B000207A2D756E6C696D6974656420302E31DD
:1022C000004F637420203420323031352032323ACE
:1022D00033363A33300052657475726E006D4100CA
:1022E00043757272656E742045006D4100437572CE
:1022F00072656E74205A006D410043757272656E8E
:102300007420582F59006D6D2F736563004D6178EF
:10231000207370656564205A006D6D2F73656300CE
:102320004D61782073706565642059006D6D2F7361
:102330006563004D61782073706565642058006D99
:102340006D2F73656300582F59204A65726B0030FA
:10235000306D6D2F7365635E3200416363656C653C
:10236000726174696F6E004D4F54494F4E006D415C
:10237000006D41006D41006D6D2F736563006D6DE3
:102380002F736563006D6D2F736563006D6D2F7323
:102390006563006D6D2F7365635E32003F3F3F00E4
:1023A00043757272656E7420450043757272656E76
:1023B00074205A0043757272656E7420582F59004C
:1023C0004D6178207370656564205A004D617820F6
:1023D00073706565642059004D6178207370656580
:1023E00064205800582F59204A65726B004163637E
:1023F000656C65726174696F6E003C20524554557E
:10240000524E006D6D2F7365630052657472616387
:1024100074207370656564006D6D0052657472613F
:102420006374206C656E6774680052455452414372
:1024300054494F4E006D6D2F736563006D6D003F05
:102440003F3F005265747261637420737065656408
:102450000052657472616374206C656E6774680005
:102460003C2052455455524E004300432F00436CCC
:1024700069636B20746F2072657475726E00526FA1
:102480007461746520746F2065787472756465007A
:102490004E6F7A7A6C652074656D706572617475C3
:1024A00072653A00206D6D00436C69636B20746F38
:1024B0002072657475726E00526F74617465207459
:1024C0006F206D6F7665205A005A20706F736974A3
:1024D000696F6E3A00206D6D00436C69636B207408
:1024E0006F2072657475726E00526F74617465202E
:1024F000746F206D6F7665205A005A20706F736973
:1025000074696F6E3A004300432F00436C69636B3C
:1025100020746F2072657475726E004E6F7A7A6CDB
:10252000652074656D70657261747572653A002519
:10253000004272696768746E657373004C454400AD
:1025400025003F3F3F0020476C6F77207768656E1E
:1025500020646F6E6500204F6E207768696C65207F
:102560007072696E74696E670020416C776179736F
:10257000204F66660020416C77617973204F6E00B2
:102580004272696768746E657373003C20524554EB
:1025900055524E003F3F3F00466163746F72792091
:1025A00072657365740052756E74696D652073741D
:1025B0006174730056657273696F6E004D6F746954
:1025C0006F6E2073657474696E6773005265747200
:1025D000616374696F6E2073657474696E677300EC
:1025E0004D6F7665206D6174657269616C00496E2E
:1025F00073657274206D6174657269616C00486FF7
:102600006D65205A004D6F7665205A20666173749F
:10261000004D6F7665205A00486F6D6520686561D2
:102620006400486561747570206E6F7A7A6C65001D
:102630004C45442073657474696E6773003C205286
:10264000455455524E0041425300504C41004731D1
:1026500020462569205825692059256900473238C8
:10266000205830205930006D6174657269616C20AA
:10267000696E73657274696F6E0048656174696E26
:1026800067207072696E746865616420666F72009D
:102690004732382058302059300052455455524E58
:1026A0000053455454494E4753004348414E474513
:1026B000004D4154455249414C0053656C6563746B
:1026C0006564206D6174657269616C3A004F4B00FE
:1026D00025004D6174657269616C20666C6F7700CE
:1026E000250046616E207370656564006D6D004D58
:1026F0006174657269616C204469616D65746572AD
:102700000043004275696C64706C617465205465A7
:102710006D702E00430054656D7065726174757242
:1027200065004D4154455249414C00505245534576
:102730005453004E657720707265736574003C20B9
:1027400052455455524E00250025006D6D00430042
:1027500043003F3F3F0053746F72652061732070E8
:10276000726573657400466C6F7720250046616E54
:10277000004469616D6574657200486561746564E3
:10278000206275696C64706C6174650054656D706D
:1027900065726174757265003C2052455455524E05
:1027A000004D6F6469667920746865207365747480
:1027B000696E677300250046616E3A20004300434E
:1027C000002500466C6F773A006D6D004375737499
:1027D0006F6D697A65003C2052455455524E006633
:1027E0006F72206D6174657269616C2072656D6FC6
:1027F00076616C0048656174696E67207072696EFD
:10280000746865616400526576657273696E6720ED
:102810006D6174657269616C0052656D6F766520DB
:102820006D6174657269616C0043414E43454C00B3
:1028300052454144590047312046256920582569B1
:10284000205925690047323820583020593000611E
:10285000626F766520746865206172726F772E00F2
:10286000796F7572206D616368696E652C006672A0
:102870006F6D20746865206261636B7369646520A5
:102880006F6600496E73657274206E6577206D61A6
:1028900074657269616C0043414E43454C0052457A
:1028A00041445900466F7277617264696E67206DAA
:1028B0006174657269616C00636F6D6573206F751B
:1028C0007420746865206E6F7A7A6C650057616950
:1028D000742074696C6C206D6174657269616C0040
:1028E00043414E43454C005245414459004D4154EB
:1028F000455249414C00250046616E3A2000430094
:1029000043002500466C6F773A006D6D004300432D
:102910002F00436C69636B20746F2072657475724D
:102920006E004E6F7A7A6C652074656D70657261A9
:10293000747572653A005344204341524400473154
:102940002046313230303020583520593130004760
:102950003238003B464C41564F523A556C746947E9
:10296000436F6465003B464C41564F523A556C7478
:102970006947436F6465004E6F2066696C6573201C
:10298000666F756E6421004F4B004F4B00526561BE
:1029900064696E6720636172642E2E2E00506C6530
:1029A00061736520696E736572742063617264007F
:1029B0004E6F2053442D4341524421003C2042415C
:1029C000434B003C2052455455524E0066726F6D89
:1029D0002074686520736C696365722E007365747A
:1029E00074696E6720776974682073657474696EA2
:1029F00067006F76657272696465206D61636869EE
:102A00006E6500546869732066696C652077696C2F
:102A10006C0043414E43454C00434F4E54494E5584
:102A200045004D383420582059004732382058305E
:102A3000205930004731204625692045300047396C
:102A4000322045256900436F64653A0053442D6385
:102A5000617264210072656164696E67004572721B
:102A60006F72207768696C650052455455524E204C
:102A7000544F204D41494E00746865207072696E54
:102A8000742E00596F752063616E2072656D6F76CC
:102A900065005072696E742066696E69736865645A
:102AA0000043004320005072696E74657220636FAA
:102AB0006F6C696E6720646F776E004241434B20F4
:102AC000544F204D454E550054696D65206C656628
:102AD000740054696D65206C65667420756E6B6E4C
:102AE0006F776E004300430048656174696E67202C
:102AF0006275696C64706C617465004300430048E2
:102B0000656174696E6700746F20636F6E74696EBF
:102B1000756500507265737320627574746F6E0012
:102B20005072696E74696E673A0041424F525400A8
:102B300054554E450041626F727420746865207070
:102B400072696E743F004E4F005945530025004294
:102B500072696768746E6573730025004D617465F2
:102B60007269616C20666C6F7700250046616E208B
:102B700073706565640025005072696E742073700F
:102B8000656564004D36303120583130205932307F
:102B9000205A30204C3330004D36303120583130FF
:102BA00020593230205A32204C3330004D363031EB
:102BB0002058313020593230205A3230204C3330B6
:102BC0000054554E45006D6D2F736563005265745A
:102BD00072616374207370656564006D6D00526589
:102BE0007472616374206C656E677468005245543A
:102BF00052414354494F4E006D6D2F736563006D14
:102C00006D003F3F3F0052657472616374207370C2
:102C10006565640052657472616374206C656E67EB
:102C20007468003C2052455455524E002500250042
:102C30002500430043004300430025004C45442049
:102C40004272696768746E6573730052657472616D
:102C50006374696F6E004D6174657269616C2066A2
:102C60006C6F770046616E20737065656400427515
:102C7000696C64706C6174652074656D702E0054AD
:102C8000656D706572617475726500537065656419
:102C90000050617573696E672E2E2E005265737534
:102CA0006D650043616E206E6F7420706175736591
:102CB000005061757365003C2052455455524E00DA
:102CC000507265706172696E6720746F20707269EE
:102CD0006E743A0048656174696E672075702E2EB7
:102CE0002E0041424F52540054554E45004E6F2025
:102CF000696E666F20617661696C61626C65006DFA
:102D0000006D004D6174657269616C3A2000546910
:102D10006D653A20003B4D4154455249414C3A00C3
:102D20003B54494D453A00466F6C646572000000A3
:102D30002100240027002A002D003000330001016B
:102D40000000040107010A010000220025002800FC
:102D50002B002E00310034000201000005010801A3
:102D60000B01000020002300260029002C002F006A
:102D700032000001000003010601090105050505F7
:102D8000070508080808020202020A0A08080404E3
:102D90000404010101010101010103030303030311
:102DA0000303040707070C0C0C0C0C0C0C0C0202A0
:102DB000020206060606060606060B0B0B0B0B0B9D
:102DC0000B0B01021020200808102040102040802A
:102DD00002010201080402010102040810204080DF
:102DE000804020100804020180040201804020106D
:102DF00008040201080402010102040810204080B6
:102E000001020408102040800000090A02080B0C8F
:102E10000D07060304010000000000000000000090
:102E200000000000000000000000000000000000A2
:102E30000000000011100F00000000000000000062
:102E40000000000000000000000000000000494EEB
:102E500046494E4954594E414ECDCCCC3D0AD7231C
:102E60003C17B7D13877CC2B329595E6241FB14F5C
:102E70000A000020410000C84200401C4620BCBEA1
:102E80004CCA1B0E5AAEC59D74005E38EF685938A7
:102E900011241FBECFEFD1E2DEBFCDBF00E00CBFDB
:102EA00014E0A0E0B2E0E2E6F7EE01E00BBF02C002
:102EB00007900D92A833B107D9F71BBE17E1A8E31D
:102EC000B4E001C01D92A338B107E1F71EE2CEE8DD
:102ED000DEE204C02297FE010E9457F3CA38D107F0
:102EE000C9F70E94FEED0C94A5F30C940000A0E03D
:102EF000B0E0EDE7F7E10C9474F3EC015B016115D0
:102F0000710519F0FB0191838083F9908F2D90E07A
:102F10000E945BF3892BC9F7FDE2FF1621F4F990BB
:102F2000EE24E39405C02BE2F21609F4F990EE24A6
:102F30008E0101501040C8016EE47EE243E050E093
:102F4000C9D2892BF9F48E010E5F1F4FC80161E5CC
:102F50007EE245E050E0BED2892B19F48E01095F74
:102F60001F4FA114B10419F0F50111830083E0FC97
:102F700004C070E090E080E813C070E090E080E86A
:102F80006FEF07C1C80166E57EE243E050E0A2D2E0
:102F9000892B69F4A114B10429F470E090E080EC6D
:102FA0006FE7F7C02296F501D183C083F6CF88245E
:102FB000992440E050E060E070E0EF2DE053EA300B
:102FC000A0F5F2E0EF2A8E2D90E09C012870307081
:102FD000E2FE06C0232B79F50894811C911C2BC0BE
:102FE000232B19F0089481089108DB01CA0112E033
:102FF000880F991FAA1FBB1F1A95D1F7480F591F99
:103000006A1F7B1F440F551F661F771F4E0F511DF0
:10301000611D711D483929E9520729E9620729E133
:10302000720748F084E0E82A06C0EE3F31F4E3FC82
:1030300039C098E0E92AF990C0CFE53311F0E531C5
:1030400089F529912D3219F4E0E1EE2A05C02B32E1
:1030500019F081E090E003C0299182E090E0E22F36
:10306000E053EA3018F0C81BD90B1CC020E030E058
:10307000FCE020383F075CF4C901880F991F880FD6
:10308000991F280F391F220F331F2E0F311DE99171
:10309000E053EA3068F3E4FE03C0309521953F4FDA
:1030A000820E931ECE2CDD24E1FE07C0A114B104D4
:1030B00021F02197F501D183C083CB01BA010E9491
:1030C000B0EF7B018C01F3E0CF22DD2423E0C216B8
:1030D000D10421F417FB109517F9109557016801D9
:1030E000C801B70120E030E040E050E00E9410EF5E
:1030F000882309F44AC097FE0DC02DE6E22E2EE289
:10310000F22E9094819491089394C0E2D0E000E074
:1031100010E012C095E8E92E9EE2F92EF6CFF701F5
:103120002591359145915491C601B5010E94F0F168
:103130005B016C018C1A9D0A8C169D0684F7D5954F
:10314000C7950F5F1F4F0630110529F08CEF9FEFD9
:10315000E80EF91EF1CFC501D6017C018D018C2D41
:10316000880F8D2D881F8F3F51F0C601B50120E0DB
:1031700030E040E050E00E9410EF882331F482E21A
:1031800090E090938217809381177E2D9F2D802F42
:10319000612F272F392F482F562FB901CA01CDB7DC
:1031A000DEB7ECE00C9490F32F923F925F926F9217
:1031B0007F928F929F92AF92BF92CF92DF92EF92C7
:1031C000FF920F931F93CF93DF938C011B01EA01B2
:1031D0006115710519F0FB0191838083209749F0F7
:1031E000CE010297839728F020E030E040E050E0E5
:1031F000F6C0F801A1908F018A2D90E00E945BF348
:10320000892BB9F7FDE2AF1631F4F801A1908F01D7
:103210005524539407C0FBE2AF1619F4F801A190AE
:103220008F015524209719F0C031D105C1F4F0E386
:10323000AF1679F4F8018081883711F0883549F4A8
:10324000F801A1800E5F1F4FF2E05F2AC0E1D0E0DD
:1032500006C0209721F480E3A816E9F427C0C830FF
:10326000D10531F1C930D10524F4C230D10531F591
:103270000CC0CA30D10589F0C031D105F9F4C12C98
:10328000D12CE12CB8E0FB2E28C0C12CD12CE12C94
:10329000A0E4FA2E22C0CAE0D0E0FCECCF2EFCEC79
:1032A000DF2EFCECEF2EFCE0FF2E17C0C8E0D0E0D4
:1032B000C12CD12CE12CE0E1FE2E0FC09E01442751
:1032C00037FD4095542F60E070E080E090E80E9468
:1032D00004F3C901DA016C017D0120E030E040E037
:1032E00050E060E03E01882477FC8094982C70EDDB
:1032F000B72EBA0CE9E0EB1570F48A2D81548A31AF
:1033000018F499ECB92E06C08A2D81568A3150F5F1
:1033100089EAB82EBA0C8B2D90E08C179D0714F516
:103320006F3FE1F0C216D306E406F506B0F0CA011D
:10333000B901A40193010E94C6F29B01AC012B0DBF
:10334000311D411D511D2130F0E03F07F0E04F07D6
:10335000F0E85F0710F461E001C06FEFF801A190A1
:103360008F01C5CF2114310481F0662331F0015063
:103370001040F1011183008308C051FE1AC00250B1
:103380001040F1011183008314C067FF12C050FC8C
:1033900005C02FEF3FEF4FEF5FE704C020E030E0C4
:1033A00040E050E882E290E090938217809381178A
:1033B00016C050FE08C050954095309521953F4F5E
:1033C0004F4F5F4F0CC057FF0AC082E290E09093CE
:1033D0008217809381172FEF3FEF4FEF5FE7B9011F
:1033E000CA01DF91CF911F910F91FF90EF90DF9075
:1033F000CF90BF90AF909F908F907F906F905F9095
:103400003F902F900895FC0188279927E8942191F7
:103410002032E9F3293010F02E30C8F32B3239F086
:103420002D3231F4689403C014D1820F911D219183
:1034300020532A30C8F31EF4909581959F4F08952C
:103440001F93FC0199278827BC01E8941191103241
:10345000E9F3193010F01E30C8F31B3249F01D3269
:1034600041F4689405C0E0D0610F711D811D911D6C
:10347000119110531A30B8F33EF4909580957095E1
:1034800061957F4F8F4F9F4F1F910895FC010590CD
:10349000061621F00020D9F7C00108953197CF0119
:1034A0000895FB01DC018D91059080190110D9F37D
:1034B000990B0895FB01DC0105900D920020E1F7C6
:1034C0000895FC0105900020E9F7809590958E0FF6
:1034D0009F1F0895FB01DC014150504088F08D9101
:1034E00081341CF08B350CF4805E659161341CF0E6
:1034F0006B350CF4605E861B611171F3990B0895B6
:10350000881BFCCFFB01DC014150504030F08D9115
:103510000590801919F40020B9F7881B990B0895BC
:10352000FB01DC014150504048F005900D92002015
:10353000C9F701C01D9241505040E0F70895FB01CA
:1035400055915523A9F0BF01DC014D91451741115B
:10355000E1F759F4CD010590002049F04D91401557
:103560004111C9F3FB014111EFCF81E090E00197D8
:103570000895FB01DC0104C08D910190801921F4B4
:1035800041505040C8F7881B990B0895FB01DC019E
:1035900002C001900D9241505040D8F70895FB01B0
:1035A000DC010D900020E9F7119701900D920020A9
:1035B000E1F70895FC018191861721F08823D9F75E
:1035C000992708953197CF010895FB01DC010190FF
:1035D0000D920020E1F70895FB01DC0141505040BD
:1035E00030F08D910190801919F40020B9F7881BF3
:1035F000990B0895FB01DC014150504048F00190C7
:103600000D920020C9F701C01D9241505040E0F7D3
:103610000895FC0181E090E00190061609F4CF01C5
:103620000020D1F701970895592F482F372F262FC3
:10363000660F771F881F991F660F771F881F991FB6
:10364000620F731F841F951F660F771F881F991FB6
:1036500008957AE0979F902D879F802D910D1124DA
:103660000895AEE0B0E0E7E3FBE10C947CF30E8953
:103670001F898EE08C831A8309838FEF9FE79E83D7
:103680008D839E01265E3F4FCE010196688D798D18
:10369000A9010AD02F813885020F131FF80110826B
:1036A0002E96E4E00C9498F3ABE0B0E0EAE5FBE1A1
:1036B0000C946EF33C012B015A01FC011782168217
:1036C000838181FD03C06FEF7FEFB9C19AE0892E3E
:1036D0001E010894211C311CF3012381F20123FDFA
:1036E000859123FF81912F01882309F4A5C185329B
:1036F00039F423FD859123FF81912F01853221F437
:1037000090E0B301B7D1E8CF982FFF24EE2499249D
:10371000FFE1FF15D0F09B3269F09C3228F4903223
:1037200059F0933291F40EC09D3249F0903369F410
:1037300041E024C052E0F52A84E0F82A28C098E04D
:10374000F92A25C0E0E1FE2A22C0F7FC29C0892F12
:1037500080538A3070F4F6FE05C0989C902C11249A
:10376000980E15C0E89CE02C1124E80EF0E2FF2A28
:103770000EC09E3229F4F6FC5FC140E4F42A07C073
:103780009C3619F450E8F52A02C0983649F4F20143
:1037900023FD959123FF91912F01992309F0B8CF33
:1037A000892F8554833018F08052833038F444E0F8
:1037B00050E0A40EB51E5FE359830FC0933631F07D
:1037C000933779F0933509F052C01FC0F50180811D
:1037D000898342E050E0A40EB51E610101E010E0D3
:1037E00011C0F501C080D180F6FC03C06FEF7FEF00
:1037F00002C0692D70E042E050E0A40EB51EC60183
:103800002ED18C015FE7F52213C0F501C080D18075
:10381000F6FC03C06FEF7FEF02C0692D70E042E05D
:1038200050E0A40EB51EC6010FD18C0150E8F52A58
:10383000F3FE06C018C080E290E0B3011BD1EA9409
:103840008E2D90E008171907B0F30DC0F601F7FCB4
:103850008591F7FE81916F0190E0B3010BD1E110EA
:10386000EA94015010400115110581F7E2C0943629
:1038700011F0993661F5F7FE08C0F501208131811C
:103880004281538184E090E00AC0F50180819181FA
:103890009C01442737FD4095542F82E090E0A80E0C
:1038A000B91E9FE6F92257FF09C050954095309503
:1038B00021953F4F4F4F5F4FE0E8FE2ACA01B90103
:1038C000A1012AE030E002D1D82ED2183FC09537AE
:1038D00029F41F2D1F7E2AE030E01DC01F2D197F07
:1038E0009F3661F0903720F4983509F0A5C00FC0DD
:1038F000903739F0983709F09FC004C028E030E0D5
:103900000AC0106114FD146020E130E004C014FD11
:10391000166020E132E017FF08C0F5016081718177
:103920008281938144E050E008C0F501808191815B
:10393000BC0180E090E042E050E0A40EB51EA10181
:10394000C5D0D82ED2188FE7F82EF122F6FE0BC084
:103950005EEFF522D91438F4F4FE07C0F2FC05C07E
:103960008FEEF82202C01D2D01C0192DF4FE0DC0EE
:10397000FE01ED0DF11D8081803319F499EEF922DD
:1039800008C01F5FF2FE05C003C08F2D867809F0C6
:103990001F5F0F2DF3FC13C0F0FE0EC01E1510F0BC
:1039A0009D2C0AC09D2C9E0C911A1E2D05C080E2F4
:1039B00090E0B3015FD01F5F1E15C8F304C01E1551
:1039C00010F4E11A01C0EE2404FF0EC080E390E081
:1039D000B30150D002FF1BC001FD03C088E790E097
:1039E0000EC088E590E00BC0802F867881F001FF43
:1039F00002C08BE201C080E2F7FC8DE290E0B301EF
:103A000039D005C080E390E0B30134D09A94D91442
:103A1000C8F3DA94F101ED0DF11D808190E0B3015E
:103A200029D0DD20B1F705C080E290E0B30122D0BB
:103A3000EA94EE20C9F750CEF30166817781CB017D
:103A40002B96E2E10C948AF3FC01059061507040E2
:103A50000110D8F7809590958E0F9F1F0895FC0157
:103A60006150704001900110D8F7809590958E0FAD
:103A70009F1F08950F931F93CF93DF938C01EB014A
:103A80008B8181FF1BC082FF0DC02E813F818C8105
:103A90009D812817390764F4E881F9810193F9833E
:103AA000E88306C0E885F985802F1995892B31F4C4
:103AB0008E819F8101969F838E8302C00FEF1FEF3F
:103AC000C801DF91CF911F910F910895FA01AA27A4
:103AD000283051F1203181F1E8946F936E7F6E5F51
:103AE0007F4F8F4F9F4FAF4FB1E03ED0B4E03CD0FF
:103AF000670F781F891F9A1FA11D680F791F8A1FE2
:103B0000911DA11D6A0F711D811D911DA11D20D048
:103B100009F468943F912AE0269F11243019305D02
:103B20003193DEF6CF010895462F4770405D4193F3
:103B3000B3E00FD0C9F7F6CF462F4F70405D4A3340
:103B400018F0495D31FD4052419302D0A9F7EACF08
:103B5000B4E0A6959795879577956795BA95C9F737
:103B600000976105710508959B01AC010A2E06942A
:103B70005795479537952795BA95C9F7620F731FE3
:103B8000841F951FA01D0895FC011282138210AAA4
:103B90000895FC0180A9882319F081E082831382B3
:103BA0000895CF93DF93EC01FC01E955FE4F80812E
:103BB000882309F461C081508083DE01AA5ABF4F77
:103BC000FE01EB58FF4F8BE101900D928150E1F720
:103BD000FE01EC5AFF4FCD58DF4F88819981C357C2
:103BE000D0409183808330E0BE0169557E4F3FC055
:103BF000832F90E0AC014F5F5F4FDC01E5E0AA0F3F
:103C0000BB1FEA95E1F7A81BB90BAC0FBD1FFA016A
:103C100025E0EE0FFF1F2A95E1F7E41BF50BEC0FF3
:103C2000FD1FAB58BF4FEB58FF4F2BE101900D929A
:103C30002150E1F7FC0125E0EE0FFF1F2A95E1F787
:103C4000E81BF90BEC0FFD1FED58FF4FDA0185E083
:103C5000AA0FBB1F8A95E1F7A41BB50BAC0FBD1FC4
:103C6000AD58BF4F8D919C91918380833F5FFB0145
:103C70008081381708F4BCCFDF91CF910895FC0103
:103C800081E394E0918380838781882321F0CF01B1
:103C900004960C94C88508950F931F938C010E947D
:103CA0005C940E945893C80180539E4F0E94C8851F
:103CB000F801128213828DE791E00E9469671F91DB
:103CC0000F910895CF92DF92EF92FF920F931F937F
:103CD000DF93CF93CDB7DEB76F970FB6F894DEBF03
:103CE0000FBECDBF8C016B01075A1F4FD8018C91BD
:103CF00009551040882321F481E3E82EF12C03C0FC
:103D0000B2E5EB2EF12CE00EF11E81E394E09A83F4
:103D100089831C821B8218861D82B7016C5F7F4FCE
:103D2000CE010596A60121E00E94038D882391F51E
:103D3000E7E8F1E0949108C08091C00085FFFCCFD6
:103D40009093C600319694919923B1F7EDE8F1E094
:103D5000949108C08091C00085FFFCCF9093C6006D
:103D6000319694919923B1F709C08091C00085FFE5
:103D7000FCCF0894C11CD11C9093C600F601908121
:103D8000992399F78091C00085FFFCCF8AE080934A
:103D9000C60056C0F801E955FE4F80818A3008F010
:103DA0003EC08F5F8083282F30E0C9010197FC015E
:103DB000A5E0EE0FFF1FAA95E1F7E81BF90BEB5802
:103DC000FF4FE00FF11F21503040AF01415E5F4FC8
:103DD000BF018BE1DB010D90BD01DA010D92AD0158
:103DE0008150C1F7929182913296968F858F7F97FD
:103DF0002115310541F7D801AB58BF4FF701349673
:103E00008BE101900D928150E1F70D581F4FF701A2
:103E100082819381D8018D939C9303571040D801E0
:103E2000AA5ABF4FFE0135968BE101900D92815049
:103E3000E1F70C5A1F4F8B819C81F801918380839D
:103E4000CE0101961CDF6F960FB6F894DEBF0FBE51
:103E5000CDBFCF91DF911F910F91FF90EF90DF9039
:103E6000CF900895EF92FF920F931F938C0190EDE6
:103E7000E92E91E0F92EE00EF11EC7010E9479852E
:103E8000C7010E94C885F801108211821F910F910D
:103E9000FF90EF900895CF92DF92EF92FF920F93F1
:103EA0001F93CF93DF937C016B01DB010D9000200A
:103EB000E9F78D0101501040061B170BE0EDF1E012
:103EC000EE0EFF1ED7011C92E0E3FEEFEE0EFF1E8A
:103ED000CB016EE470E06EDBEC01009731F4F80189
:103EE0003197EC0DFD1D86010CC060E270E062DBD5
:103EF0008C010F5F1F4FCE016AE270E05BDBFC01BB
:103F000031978DE081838AE082831382C7018453D5
:103F10009E4FB8010E94FD8D80ED91E0E80EF91EE4
:103F2000D7018C91882319F1E7EBF1E0949108C057
:103F30008091C00085FFFCCF9093C600319694918C
:103F40009923B1F7EEEBF1E0949108C08091C000A5
:103F500085FFFCCF9093C600319694919923B1F7D9
:103F60008091C00085FFFCCF8AE08093C600DF917E
:103F7000CF911F910F91FF90EF90DF90CF90089518
:103F8000CF93DF93EC0188A9882309F43DC0E2EFC9
:103F9000F1E0949108C08091C00085FFFCCF909320
:103FA000C600319694919923B1F7CD50DE4F4881E8
:103FB00059816A817B81C35FD14080E89AE02AE021
:103FC00030E00E948869E0EFF1E0949108C08091B0
:103FD000C00085FFFCCF9093C60031969491992341
:103FE000B1F7C551DE4F488159816A817B81CB5E33
:103FF000D14080E89AE02AE030E00E948869809110
:10400000C00085FFFCCF12C0E0EEF1E0949108C043
:104010008091C00085FFFCCF9093C60031969491AB
:104020009923B1F78091C00085FFFCCF8AE080938F
:10403000C600C655DE4F68816623E1F0E4EDF1E08D
:10404000949108C08091C00085FFFCCF9093C6007A
:10405000319694919923B1F780E89AE070E04AE0B4
:1040600050E00E94D7698091C00085FFFCCF8AE0B4
:104070008093C600DF91CF9108952F923F924F9287
:104080005F926F927F928F929F92AF92BF92CF92E8
:10409000DF92EF92FF920F931F93DF93CF93CDB7F1
:1040A000DEB7AD970FB6F894DEBF0FBECDBF5C0193
:1040B0004B014DA7FC0180A9882309F4DFC130ED35
:1040C000432E31E0532E4A0C5B1CC2010E94C8856E
:1040D000F501128213821A8A1D8A198A188A81E3CD
:1040E00094E09F878E8720E5C22ED12CCA0CDB1C62
:1040F00081E390E0A80EB91EF601B182A0828FEC98
:104100009FEFA80EB91EF40180818F3209F08AC09A
:10411000C4016FE270E04EDA7C010894E11CF11CEE
:104120003E010894611C711C160176C0C7016FE244
:1041300070E040DA6C01009709F482C0E816F906D5
:1041400008F07EC08C010E191F09C301B701A80138
:1041500051DA060D171DF8011082F30107C0809196
:10416000C00085FFFCCF31969093C60090819923C3
:10417000B1F78091C00085FFFCCFFAE0F093C60054
:10418000F101608171816115710519F460E070E0E1
:1041900002C06C5F7F4FCE014296A30121E00E94D6
:1041A000038D882371F5E6EAF2E0949108C08091CE
:1041B000C00085FFFCCF9093C6003196949199235F
:1041C000B1F7FE01319607C08091C00085FFFCCF9A
:1041D00031969093C60090819923B1F7E4EAF2E01A
:1041E000949108C08091C00085FFFCCF9093C600D9
:1041F000319694919923B1F78091C00085FFFCCF4F
:1042000037C18EE090E08C0F9D1FF1019183808378
:1042100076010894E11CF11C92E0E916F10408F023
:1042200085CF0BC0E2E5F0E0AE0EBF1EF601B18215
:10423000A0828EEA9FEFA80EB91E082DF92C01C0AE
:104240000E2DF501E05BFF4F9DA5992309F4ADC04C
:10425000608171816115710519F460E070E002C040
:104260006C5F7F4FC201402F5F2D21E00E94038DC4
:10427000882309F46AC0E1EEF1E0AE0EBF1EF5013D
:1042800040815181628173818AE090E0A80EB91E5D
:10429000F501408351836283738385E19EEFA80E0D
:1042A000B91EE6E9F2E0949108C08091C00085FF54
:1042B000FCCF9093C600319694919923B1F7802F4B
:1042C0009F2D9C01F90107C08091C00085FFFCCFA4
:1042D00031969093C60090819923B1F7EEE8F2E011
:1042E000949108C08091C00085FFFCCF9093C600D8
:1042F000319694919923B1F780E89AE02AE030E072
:104300000E9488698091C00085FFFCCF8AE080937D
:10431000C600E3EFF1E0AE0EBF1EF5011082118280
:1043200012821382E0E8F2E0949108C08091C0000C
:1043300085FFFCCF9093C600319694919923B1F7F5
:104340008091C00085FFFCCF93C0ECE6F2E0949131
:1043500008C08091C00085FFFCCF9093C6003196C5
:1043600094919923B1F7802F9F2D9C01F90107C0EB
:104370008091C00085FFFCCF31969093C60090815C
:104380009923B1F7EAE6F2E0949108C08091C00069
:1043900085FFFCCF9093C600319694919923B1F795
:1043A0008091C00085FFFCCF63C060817181611581
:1043B000710519F460E070E002C06C5F7F4FC201CC
:1043C000402F5F2D26E50E94038D882381F5E6E5C9
:1043D000F2E0949108C08091C00085FFFCCF9093DB
:1043E000C600319694919923B1F7802F9F2D9C019F
:1043F000F90107C08091C00085FFFCCF31969093F2
:10440000C60090819923B1F7E4E5F2E0949108C0E9
:104410008091C00085FFFCCF9093C60031969491A7
:104420009923B1F78091C00085FFFCCF21C081E0C6
:10443000F5018083E2E4F2E0949108C08091C0002D
:1044400085FFFCCF9093C600319694919923B1F7E4
:10445000F40107C08091C00085FFFCCF3196909396
:10446000C60090819923B1F78091C00085FFFCCFF1
:104470008AE08093C600CE010E9601DCAD960FB6A1
:10448000F894DEBF0FBECDBFCF91DF911F910F918A
:10449000FF90EF90DF90CF90BF90AF909F908F9064
:1044A0007F906F905F904F903F902F900895FC0108
:1044B00081E08183CF0140E0E0CD2F923F924F9287
:1044C0005F926F927F928F929F92AF92BF92CF92A4
:1044D000DF92EF92FF920F931F93DF93CF93CDB7AD
:1044E000DEB7AC970FB6F894DEBF0FBECDBF5C0150
:1044F0004B01FC0180A9882309F435C1C501805313
:104500009E4F0E94C885F501128213821A8A1D8A65
:10451000198A188A81E394E09F878E8750E5C52E1B
:10452000D12CCA0CDB1C21E330E0A20EB31EF60135
:10453000B182A0822FEC3FEFA20EB31EF401808166
:104540008F3209F08DC0C4016FE270E033D87C0176
:104550000894E11CF11C3E010894611C711C2601A9
:1045600042E1242E312C2C0E3D1E75C0C7016FE296
:1045700070E020D86C01009709F480C0E816F906B5
:1045800008F07CC08C010E191F09C301B701A801F6
:1045900031D8060D171DF8011082F30107C0809174
:1045A000C00085FFFCCF31969093C600908199237F
:1045B000B1F78091C00085FFFCCFFAE0F093C60010
:1045C000F201608171816115710519F460E070E09C
:1045D00002C06C5F7F4FC101A30121E00E94038DE7
:1045E000882371F5EEE2F2E0949108C08091C0005A
:1045F00085FFFCCF9093C600319694919923B1F733
:10460000FE01319607C08091C00085FFFCCF319636
:104610009093C60090819923B1F7ECE2F2E0949177
:1046200008C08091C00085FFFCCF9093C6003196F2
:1046300094919923B1F78091C00085FFFCCF8DC084
:104640002EE030E02C0F3D1FF201318320837601F4
:104650000894E11CF11CE114F10409F087CF0BC0B0
:1046600082E590E0A80EB91EF601B182A0822EEA82
:104670003FEFA20EB31ED82C092D02C0DE2C0F2D49
:1046800080E590E0A80EB91EF5018081918120EBB4
:104690003FEFA20EB31E009719F480E090E001C036
:1046A00004966D2D702F0E94CF8D882339F1EEE195
:1046B000F2E0949108C08091C00085FFFCCF9093F8
:1046C000C600319694919923B1F78D2D902F9C01BE
:1046D000F90107C08091C00085FFFCCF319690930F
:1046E000C60090819923B1F783EF91E0A80EB91E1F
:1046F000F501108211821282138232C0E6E0F2E0EC
:10470000949108C08091C00085FFFCCF9093C600B3
:10471000319694919923B1F78D2D902F9C01F90139
:1047200007C08091C00085FFFCCF31969093C600F2
:1047300090819923B1F7E4E0F2E0949108C0809170
:10474000C00085FFFCCF9093C600319694919923C9
:10475000B1F78091C00085FFFCCF8AE08093C6004E
:10476000CE010E968CDAAC960FB6F894DEBF0FBE73
:10477000CDBFCF91DF911F910F91FF90EF90DF9010
:10478000CF90BF90AF909F908F907F906F905F90F1
:104790004F903F902F900895EF92FF920F931F93A9
:1047A000CF93DF938C01FC0110AA80AD882321F008
:1047B000C801C5960E94C88569EAE62E61E0F62E1A
:1047C000E00EF11EC70160E045E30E949683882356
:1047D00009F5E7E8F1E0949108C08091C00085FFF9
:1047E000FCCF9093C600319694919923B1F7E8EEEF
:1047F000F2E0949108C08091C00085FFFCCF9093B7
:10480000C600319694919923B1F78091C00085FF3D
:10481000FCCF7DC0E801C255DE4FCE01B70141E0BB
:104820000E949A8E882341F5CE01B70140E00E9494
:104830009A8E882309F5E7EBF1E0949108C0809106
:10484000C00085FFFCCF9093C600319694919923C8
:10485000B1F7E5EDF2E0949108C08091C00085FFCA
:10486000FCCF9093C600319694919923B1F7809133
:10487000C00085FFFCCF4BC0C801C596BE010E9499
:104880009F88882309F5E7EBF1E0949108C08091B7
:10489000C00085FFFCCF9093C60031969491992378
:1048A000B1F7E5ECF2E0949108C08091C00085FF7B
:1048B000FCCF9093C600319694919923B1F78091E3
:1048C000C00085FFFCCF23C081E0F80180ABE7E8A2
:1048D000F1E0949108C08091C00085FFFCCF9093D7
:1048E000C600319694919923B1F7EAEBF2E09491E6
:1048F00008C08091C00085FFFCCF9093C600319620
:1049000094919923B1F78091C00085FFFCCF8AE094
:104910008093C600D801AA5ABF4FF801F5968BE1E3
:1049200001900D928150E1F7F80183A994A90C5AE6
:104930001F4FF8019183808304551040C801C19630
:10494000005B1F4FF80191838083DF91CF911F910E
:104950000F91FF90EF9008952F923F924F925F92A8
:104960006F927F929F92AF92BF92CF92DF92EF921F
:10497000FF920F931F93DF93CF93CDB7DEB7CC5544
:10498000D0400FB6F894DEBF0FBECDBF6C016623DA
:1049900011F527EF31E0C20ED31ED6018C91E9E06C
:1049A000FEEFCE0EDF1E882309F4E9C02FEE31E0C2
:1049B000C20ED31ED601ED90FD900D911C91E1E148
:1049C000FEEFCE0EDF1E0E94CBEBE616F7060807C1
:1049D000190708F4D4C027EF31E0C20ED31ED60168
:1049E0001C92E9E0FEEFCE0EDF1ED601D0968C9130
:1049F000882339F4C601D0DEF60180A9882309F4A2
:104A0000BEC000D000D0EDB7FEB731967E0108944D
:104A1000E11CF11CADB7BEB71296FC92EE92119755
:104A20008EEA91E093838283D6019E968D919C912C
:104A30009F97958384830E94311B8701EDB7FEB752
:104A400036960FB6F894FEBF0FBEEDBF57010AC0F1
:104A5000D8018C91992787FD90950E9463F3F80106
:104A600081938F01F50101900020E9F73197EA1950
:104A7000FB09802F8E198E175CF3A5E3AA2EB12CAB
:104A8000AC0CBD1CC50140E050E060E070E00E944D
:104A9000AF849924FDE3EF2EF12CEC0EFD1E2E01C8
:104AA0000894411C511CEFE16E2E712C6C0E7D1E82
:104AB00077EA272E71E0372E42C0D8018C9190E022
:104AC0000E9463F3F80181938F01D7010D900020BC
:104AD000E9F71197AE19BF09802F8E198A176CF369
:104AE00027968FAD27978E3751F1C701B20145E068
:104AF00050E00E94EC1A009711F500D000D0EDB7FD
:104B0000FEB73196ADB7BEB712967C926E921197F2
:104B100033822282558244820E94311BEDB7FEB758
:104B200036960FB6F894FEBF0FBEEDBFC3010E94CC
:104B3000E26783EA91E00E94696799249394C50132
:104B4000B70140E050E00E94BE87181614F48701B8
:104B5000BCCF992041F48FEF9FEFD6019F969C9395
:104B60008E939E9706C0F60186A597A5019697A7F6
:104B700086A72AEA31E0C20ED31ED6011C92C45A7F
:104B8000DF4F0FB6F894DEBF0FBECDBFCF91DF91E0
:104B90001F910F91FF90EF90DF90CF90BF90AF905B
:104BA0009F907F906F905F904F903F902F900895CF
:104BB0002F923F924F925F926F927F928F929F922D
:104BC000AF92BF92CF92DF92EF92FF920F931F931B
:104BD000DF93CF93CDB7DEB7CF58D0400FB6F89460
:104BE000DEBF0FBECDBF8C013B016A0184E090E0C7
:104BF000C80ED91EF8017296C757DF4FF983E883B4
:104C0000C958D040C8010596CA57DF4F9983888399
:104C1000C658D040C857DF4F1882C858D04036E633
:104C2000E32EF12CEC0EFD1EF7013B96C557DF4F2E
:104C3000F983E883CB58D04028EF822E21E0922ED2
:104C4000800E911E9AEFA92E91E0B92EA00EB11EF2
:104C50008EE0282E312C2C0E3D1EB7E44B2E512C0D
:104C60004C0E5D1EC2010496C357DF4F99838883A3
:104C7000CD58D040E7E8F1E09491C157DF4F9883D9
:104C8000CF58D0404EC1F7018385482F50E0BA017C
:104C9000687170706031710509F051C1F4012081B3
:104CA00031812130310509F44AC12230310509F43E
:104CB00046C1F701DE0111969081903239F08E2FB6
:104CC0008E19883011F48EE28D939D933196C557DD
:104CD000DF4F88819981CB58D040E817F90761F7F9
:104CE0001C921E86F3018081882329F4C10160E0B3
:104CF00072E00E94CF1AC101B3010E94CF1AC10114
:104D0000BE016F5F7F4F0E94CF1AC10160E072E069
:104D10000E94CF1A1CA61FA61BA61AA681E394E028
:104D200099A788A7CE018C96B601AE014F5F5F4F61
:104D300021E00E94038D882309F03FC0F4018081A7
:104D40009181892BD1F5C157DF4F9881CF58D04041
:104D5000E7E8F1E008C08091C00085FFFCCF9093A8
:104D6000C600319694919923B1F7E2E0F2E007C0D2
:104D70008091C00085FFFCCF31969093C600908152
:104D80009923B1F78091C00085FFFCCFFAE0F09342
:104D9000C600FE01319607C08091C00085FFFCCFA0
:104DA00031969093C60090819923B1F78091C0000D
:104DB00085FFFCCF8AE08093C600C357DF4FA881F0
:104DC000B981CD58D040FE01BC968BE101900D9287
:104DD0008150E1F78AA59BA5F2019383828381E349
:104DE00094E091838083C801B101A201E1DEC20198
:104DF0000E943F1ECE0188960E943F1E92C0953EA3
:104E000009F48FC09E3209F48CC09F3509F489C023
:104E1000F8019289992331F09E3209F482C09F35BE
:104E200009F47FC043FD7DC080E06031710509F465
:104E300081E0F80185A7882349F4F701808587344C
:104E400009F06FC081858E3709F46BC0CA57DF4FF8
:104E5000A881B981C658D040F7018081803241F0E5
:104E60008E2F8E19883011F48EE28D9380818D9370
:104E70003196C557DF4F88819981CB58D040E817CC
:104E8000F90759F71C92F40180819181009729F567
:104E9000F30107C08091C00085FFFCCF319690934D
:104EA000C60090819923B1F7CA57DF4FE881F98195
:104EB000C658D04007C08091C00085FFFCCF319616
:104EC0009093C60090819923B1F78091C00085FF2F
:104ED000FCCFFAE0F093C60024C08130910539F48C
:104EE000F501808191810196918380831AC0029798
:104EF000C1F4C857DF4FF881C858D0402F2F30E099
:104F0000F5018081918128173907F1F0C857DF4FEB
:104F1000F881C858D040FF5FC857DF4FF883C858A2
:104F2000D040C601B701C757DF4F48815981C958E2
:104F3000D0400E94BE8718160CF4A5CE05C0F7011C
:104F40009081992309F05BCFC157DF4F0FB6F894DA
:104F5000DEBF0FBECDBFCF91DF911F910F91FF90AC
:104F6000EF90DF90CF90BF90AF909F908F907F9009
:104F70006F905F904F903F902F900895EF92FF9227
:104F80000F931F93DF93CF93CDB7DEB76F970FB615
:104F9000F894DEBF0FBECDBF7C018C01005B1F4FBC
:104FA0008E5A9F4FF8019183808328EF31E0E20E03
:104FB000F31E21E030E0F701219331937F0111824C
:104FC000108226E03EEFE20EF31E049640E050E031
:104FD00060E070E00E94AF84F80120813181DE0141
:104FE0001596F90134968BE101900D928150E1F70D
:104FF000F901828193819C838B8381E394E09A837E
:105000008983C70165E172E08E010F5F1F4FA80120
:10501000CFDDC8010E943F1EF701E650FE4F8081A0
:1050200091816F960FB6F894DEBF0FBECDBFCF91C2
:10503000DF911F910F91FF90EF900895EF92FF92F3
:105040000F931F93DF93CF93CDB7DEB76F970FB654
:10505000F894DEBF0FBECDBF7C018C01005B1F4FFB
:105060008E5A9F4FF8019183808328EF31E0E20E42
:10507000F31E22E030E0F7013183208328E03EEF89
:10508000E20EF31EF701E650FE4F60831182049694
:1050900040E050E060E070E00E94AF84F8012081C1
:1050A0003181DE011596F90134968BE101900D9264
:1050B0008150E1F7F901828193819C838B8381E3A5
:1050C00094E09A838983C70165E172E08E010F5FE6
:1050D0001F4FA8016DDDC8010E943F1E6F960FB6DD
:1050E000F894DEBF0FBECDBFCF91DF911F910F911E
:1050F000FF90EF900895EF92FF920F931F93DF932D
:10510000CF93CDB7DEB76F970FB6F894DEBF0FBE63
:10511000CDBF7C0188EF91E0E80EF91EF701118206
:10512000108288E09EEFE80EF91E87010B5C1F4F8E
:10513000C80140E050E060E070E00E94AF84DE0112
:105140001596F8018BE101900D928150E1F7F7017E
:1051500083A994A99C838B8381E394E09A838983B8
:10516000C70165E172E08E010F5F1F4FA80120DDCE
:10517000C8010E943F1E6F960FB6F894DEBF0FBEA7
:10518000CDBFCF91DF911F910F91FF90EF900895C8
:105190000F931F93CF93DF93DC01D5961C92D59785
:1051A000D8961C92D897D4961C921E92D39781E3DE
:1051B00094E0D2969C938E93D197AA5ABF4F1C929B
:1051C00013961C92A955B040FD01EE5AFF4FAC5A00
:1051D000BF4F11961C921E92A455B04091838083BC
:1051E000ED01CF58DF4FFE0120E030E0482F148260
:1051F00017821382128240839183215E3F4F7F96F4
:1052000081E02633380799F7A655BE4F89E18C9384
:1052100013961C9258961C921B961C9213961C92E5
:10522000A35DB140FD01E453FE4FA253BE4F119662
:105230001C921E92408391835D961D921D921D9239
:105240001C92139718961D921D921D921C921397F3
:10525000A35FB14012961C92129713961C9213975B
:10526000D0961C92D0971C9211961C9211978D018A
:1052700001511E4FF8011082118212821382A9552A
:10528000BE4F1C92FE01C90111920197E9F7A05B84
:10529000BF4F81E08C93A75FB1409F961C921E92F6
:1052A0009E970E94CBEB68577C4E8F4F9F4FF80123
:1052B0006083718382839383DF91CF911F910F91DC
:1052C0000895DF93CF93CDB7DEB764970FB6F89408
:1052D000DEBF0FBECDBF8091160290911702A09144
:1052E0001802B09119028D879E87AF87B88BFE0197
:1052F0003D9624E630E08081F999FECF1FBA32BD99
:1053000021BD80BD0FB6F894FA9AF99A0FBE2F5FAF
:105310003F4F2836310511F03196EDCFE5E9FAE03F
:105320008081F999FECF1FBA32BD21BD80BD0FB675
:10533000F894FA9AF99A0FBE2F5F3F4F283731053C
:1053400011F03196EDCFE5E8FAE08081F999FECFD2
:105350001FBA32BD21BD80BD0FB6F894FA9AF99AF2
:105360000FBE2F5F3F4F2838310511F03196EDCF3A
:10537000E9EAFAE08081F999FECF1FBA32BD21BD7A
:1053800080BD0FB6F894FA9AF99A0FBE2F5F3F4F7F
:105390002839310511F03196EDCFEDEBFAE080813F
:1053A000F999FECF1FBA32BD21BD80BD0FB6F8946A
:1053B000FA9AF99A0FBE2F5F3F4F2C39310511F041
:1053C0003196EDCFE1ECFAE08081F999FECF1FBA7A
:1053D00032BD21BD80BD0FB6F894FA9AF99A0FBE7E
:1053E0002F5F3F4F203A310511F03196EDCFE9EBB9
:1053F000FAE08081F999FECF1FBA32BD21BD80BD90
:105400000FB6F894FA9AF99A0FBE2F5F3F4F243ADD
:10541000310511F03196EDCFE1EDFAE08081F99997
:10542000FECF1FBA32BD21BD80BD0FB6F894FA9AE7
:10543000F99A0FBE2F5F3F4F283A310511F0319690
:10544000EDCFE1E8FAE08081F999FECF1FBA32BDD5
:1054500021BD80BD0FB6F894FA9AF99A0FBE2F5F5E
:105460003F4F2C3A310511F03196EDCFE5ECFAE0E3
:105470008081F999FECF1FBA32BD21BD80BD0FB624
:10548000F894FA9AF99A0FBE2F5F3F4F203B3105EF
:1054900011F03196EDCFE9ECFAE08081F999FECF79
:1054A0001FBA32BD21BD80BD0FB6F894FA9AF99AA1
:1054B0000FBE2F5F3F4F243B310511F03196EDCFEA
:1054C000EDECFAE08081F999FECF1FBA32BD21BD23
:1054D00080BD0FB6F894FA9AF99A0FBE2F5F3F4F2E
:1054E000283B310511F03196EDCFE9E7F6E08081F8
:1054F000F999FECF1FBA32BD21BD80BD0FB6F89419
:10550000FA9AF99A0FBE2F5F3F4F243C310511F0F4
:105510003196EDCF84EB90E09A83898386E490E026
:105520009C838B831E821D8280EF90E098878F83FF
:1055300084E690E09A8789871C861B86FE01319657
:105540008081F999FECF1FBA32BD21BD80BD0FB653
:10555000F894FA9AF99A0FBE2F5F3F4F263C310517
:1055600071F7FE0133968081F999FECF1FBA32BDE3
:1055700021BD80BD0FB6F894FA9AF99A0FBE2F5F3D
:105580003F4F283C310511F03196EDCFFE013596A5
:105590008081F999FECF1FBA32BD21BD80BD0FB603
:1055A000F894FA9AF99A0FBE2F5F3F4F2A3C3105C3
:1055B00011F03196EDCFFE0137968081F999FECF3B
:1055C0001FBA32BD21BD80BD0FB6F894FA9AF99A80
:1055D0000FBE2F5F3F4F2C3C310511F03196EDCFC0
:1055E000FE0139968081F999FECF1FBA32BD21BDE7
:1055F00080BD0FB6F894FA9AF99A0FBE2F5F3F4F0D
:105600002E3C310511F03196EDCFFE013B968081A5
:10561000F999FECF1FBA32BD21BD80BD0FB6F894F7
:10562000FA9AF99A0FBE2F5F3F4F203D310511F0D6
:105630003196EDCFE8EAF3E08081F999FECF1FBA09
:1056400032BD21BD80BD0FB6F894FA9AF99A0FBE0B
:105650002F5F3F4F243D310511F03196EDCFECEA3D
:10566000F3E08081F999FECF1FBA32BD21BD80BD24
:105670000FB6F894FA9AF99A0FBE2F5F3F4F283D64
:10568000310511F03196EDCFE0EBF3E08081F9992F
:10569000FECF1FBA32BD21BD80BD0FB6F894FA9A75
:1056A000F99A0FBE2F5F3F4F2C3D310511F0319617
:1056B000EDCFEDE9F3E08081F999FECF1FBA32BD5D
:1056C00021BD80BD0FB6F894FA9AF99A0FBE213E1B
:1056D000310521F02F5F3F4F3196EDCF2091C00370
:1056E000F999FECF1FBA82EE90E092BD81BD20BD38
:1056F0000FB6F894FA9AF99A0FBE20918812F99988
:10570000FECF1FBA83EE90E092BD81BD20BD0FB6E3
:10571000F894FA9AF99A0FBEECE5F3E084EE90E083
:105720002081F999FECF1FBA92BD81BD20BD0FB671
:10573000F894FA9AF99A0FBE0196883E910511F0F5
:105740003196EECFE0E6F3E02081F999FECF1FBA63
:1057500092BD81BD20BD0FB6F894FA9AF99A0FBE9A
:105760008B3E910519F001963196EECF80911A0289
:1057700090911B02A0911C02B0911D02898B9A8B03
:10578000AB8BBC8BFE01719684E690E02081F99989
:10579000FECF1FBA92BD81BD20BD0FB6F894FA9A14
:1057A000F99A0FBE8736910519F001963196EECF22
:1057B000E5EFF2E0949108C08091C00085FFFCCF36
:1057C0009093C600319694919923B1F7EFEFF4E0EE
:1057D000949108C08091C00085FFFCCF9093C600D3
:1057E000319694919923B1F78091C00085FFFCCF49
:1057F0008AE08093C60064960FB6F894DEBF0FBEB1
:10580000CDBFCF91DF910895DF93CF93CDB7DEB7B2
:10581000E0970FB6F894DEBF0FBECDBFDE01119644
:10582000E1EEF3E080E101900D928150E1F7DE01BD
:105830005196E1EDF3E080E101900D928150E1F7A6
:10584000DE019196E1ECF3E080E101900D92815050
:10585000E1F789819A81AB81BC818093950A90930D
:10586000960AA093970AB093980A89899A89AB8976
:10587000BC898093850A9093860AA093870AB09387
:10588000880A89A19AA1ABA1BCA18093A90A90938F
:10589000AA0AA093AB0AB093AC0A8D819E81AF8116
:1058A000B8858093990A90939A0AA0939B0AB09323
:1058B0009C0A8D899E89AF89B88D8093890A9093BF
:1058C0008A0AA0938B0AB0938C0A8DA19EA1AFA1E6
:1058D000B8A58093AD0A9093AE0AA093AF0AB09397
:1058E000B00A89859A85AB85BC8580939D0A909383
:1058F0009E0AA0939F0AB093A00A898D9A8DAB8DC2
:10590000BC8D80938D0A90938E0AA0938F0AB093DA
:10591000900A89A59AA5ABA5BCA58093B10A9093DE
:10592000B20AA093B30AB093B40A8D859E85AF8561
:10593000B8898093A10A9093A20AA093A30AB09376
:10594000A40A8D8D9E8DAF8DB8A18093910A9093FE
:10595000920AA093930AB093940A8DA59EA5AFA531
:10596000B8A98093B50A9093B60AA093B70AB093EA
:10597000B80A0E94536E80E090E0AAE7B4E48093F6
:10598000BD0A9093BE0AA093BF0AB093C00A80E0FC
:1059900090E8ABE3B5E48093C10A9093C20AA09368
:1059A000C30AB093C40A20E030E040E050E0209306
:1059B000B90A3093BA0A4093BB0A5093BC0A80E2FA
:1059C0009EE4A0E0B0E08093810A9093820AA093C5
:1059D000830AB093840A2093D10A3093D20A409369
:1059E000D30A5093D40A80E090E0A0EAB1E4809317
:1059F000C50A9093C60AA093C70AB093C80A8DEC53
:105A00009CECACECBEE38093C90A9093CA0AA093C5
:105A1000CB0AB093CC0A80E090E0A0EAB0E4809397
:105A2000CD0A9093CE0AA093CF0AB093D00A2093C8
:105A30008106309382064093830650938406209318
:105A40007D0630937E0640937F0650938006209318
:105A5000790630937A0640937B0650937C0686E65F
:105A600096E6A2E4B1E48093A8039093A903A093DF
:105A7000AA03B093AB0360E070E080E89FE30E946C
:105A8000569C6093AC037093AD038093AE039093E8
:105A9000AF036BE774E184E192E40E94629C60933F
:105AA000B0037093B1038093B2039093B3030E9449
:105AB000749B80E090E0A0E8BFE38093B4039093F0
:105AC000B503A093B603B093B70384E195E0909338
:105AD0009E0380939D039093A00380939F0382EE87
